:10F000000C9471780C948E780C948E780C948E7885
:10F010000C948E780C948E780C948E780C948E7858
:10F020000C948E780C948E780C948E780C948E7848
:10F030000C948E780C9470790C948E780C948E7855
:10F040000C948E780C948E780C948E780C948E7828
:10F050000C948E780C948E780C948E780C948E7818
:10F060000C948E780C948E780C948E780C948E7808
:10F070003E3E20557A65626F782047616D654C6F22
:10F080006164657220302E342E35203C3C004C4F9C
:10F090004144494E472E2E2E003C205041474520EA
:10F0A000312F31203E00424F4F543A204D454E55AE
:10F0B00000424F4F543A2047414D450053442049A8
:10F0C0004E4954204641494C3A204E4F204341522C
:10F0D000443F00494E49542052454144204641494D
:10F0E0004C0011241FBECFEFD0E1DEBFCDBF14BE58
:10F0F00088E10FB6F89480936000109260000FBE14
:10F100001FE0A0E0B1E001C01D92A53EB107E1F70C
:10F110000E94FB790E941B7C0C94DA7F0C9400788F
:10F120005BA4F6F6F6A45B52A179BD79C97914798E
:10F130008100450027FF24FF2A902B1C210C22FB75
:10F14000850084008903888D81096F02444247004D
:10F150004501B083B300B101251101008EE591E0B6
:10F160000197F1F700C0C0E0D1E06091BD0B78E0FD
:10F17000679F702D6627D8D036E23A95F1F71DD0FB
:10F1800036E13A95F1F700C07A9559F06395683009
:10F1900019F0C89500C0EFCF662730E5C30FD61F22
:10F1A000EACF34E03A95F1F700C0BED011E01093F9
:10F1B000BA0BE2E0E093360008950027E0E2F1EFB9
:10F1C000E60FF01F4490DE0158E0E0ECF9E0E60FB6
:10F1D000F01FCF010D91059FE00DF11D2D900081D5
:10F1E00018E2222D07FD242D28B94D91222D06FD70
:10F1F000242D28B9459F222D05FD242D28B9080E60
:10F20000191E222D04FD242D28B9F0011A95222D56
:10F2100003FD242D28B90081222D2D9028B909F74E
:10F22000C895002708B90895289815D1E7E1EA950F
:10F23000F1F7289AE7E0E0938900EBE1E09388009A
:10F24000E0E0F6E0ADD0E0FF29D0E0FF02C0789426
:10F2500001D008958F93129A92E09A95F1F70000E9
:10F2600000001298EE27FF278CE0F695E79592E0D4
:10F270009A95F1F700000000139892E09A95F1F743
:10F2800000000000009BF860139A8A9571F7FF70E8
:10F29000E093C00BF093C10B8F910895EF93FDEFB6
:10F2A0000090BC0BF019E091B90BEF17B8F4009087
:10F2B000BD0BE8E00E9EF019E091B90BEF1770F06E
:10F2C000EDE1FF2700800F92EA95E1F70E94AE780A
:10F2D000E1E0FF270F900192EE31E0F3EF91089506
:10F2E000FF93EF93EFB7EF93E0918400EE50F1E0DE
:10F2F000EF1700F0F395F431D8F305D0EF91EFBF9D
:10F30000EF91FF9118950F921F92E8E2F1EF0090B4
:10F31000B80B000C1124E00DF11D05901490F001C4
:10F3200009951F900F900895289895D0E5E1EA95EA
:10F33000F1F7E091B90BEA95E093B90B289A00C078
:10F340000895289888D0289AE1E0F6E029D0E3E0F3
:10F35000E0938900EDE8E0938800F091BE0BF03077
:10F3600059F0F093BC0BF091BF0BF093BD0BFF274E
:10F37000F093BE0BF093BF0B089528986CD0E0EB90
:10F380000000EA95E9F700C0289AF6E0E2E008D02C
:10F390000895289860D0289AE3E0FDEF01D0089501
:10F3A0000090B90B0A9410905F0011FC0F2E009290
:10F3B000B90B0090B80B11FC0E2E0092B80BE0E0D8
:10F3C00011FCE1E00895E0ECF8E0A0E0B1E01124E8
:10F3D0001D923197E9F70895992730E5639F880FCB
:10F3E000080E191EA0E0B1E0A00DB11D40524D93D2
:10F3F0002C9311240895F894D0E0E0E3F1EFC59147
:10F4000005910883C030D9F744E14093BC0B4CE12F
:10F410004093BD0BE2E0F5EFA0ECB9E08FE305917E
:10F42000159125913591459178E00D9365E0441F44
:10F43000331F221F111F001F6A95C9F77A95A9F77C
:10F440008A9569F705B7102F016005BF12E015BF57
:10F450007894112408950F931F93E9E0EA95F1F74A
:10F4600000000091C20B1091C30BE091C40B01038B
:10F470000024065AE055101110400093C20B10935F
:10F48000C30BE093C40B00E8101A1092B3001F9155
:10F490000F910895F999FECF92BD81BD60BDF8949A
:10F4A000FA9AF99A78940895F999FECF92BD81BDA0
:10F4B000F894F89A80B5789408959091BA0B9030AA
:10F4C000E1F399279093BA0B8A95B9F70895FC0157
:10F4D000E050FF4F418332966A95E1F70895DC01D1
:10F4E000A050BF4FFB0180819591F7FD892F8823A4
:10F4F00039F0803408F08F7D80528D934D93F3CF97
:10F5000008950000000000239C420080DEE400001B
:10F510000002BEA57D4043A0C17080CE44444E6031
:10F5200045288AC9A0631000000022108420804171
:10F5300008421100029DF728000109F210000000A6
:10F540000031880001F000000000003180004444D8
:10F55000400074675CC5C023084211C07442644314
:10F56000E07442E0C5C011952F8840FC21E0C5C081
:10F570003221E8C5C0F8444421007462E8C5C07473
:10F5800062F089800018C031800018C03188088876
:10F59000820820003E007C00410411110074426288
:10F5A0000080746F5BC1C074631FC620F463E8C73A
:10F5B000C074610845C0F46318C7C0FC21E843E08B
:10F5C000FC21E84200746178C5E08C63F8C62071C4
:10F5D000084211C0084218C5C08CA98A4A2084215B
:10F5E0000843E08EEB18C6208E6B38C62074631873
:10F5F000C5C0F463E8420074631AC9A0F463E94625
:10F60000207460E0C5C0F9084210808C6318C5C042
:10F610008C6318A8808C6B5AD5408C544546208C3E
:10F6200062A21080F0888843C032118420C0326DFD
:10F630004B24C000000000000F931F938C0160E07A
:10F6400070E080E090E00E94857F0A531E4FF80131
:10F650006081718182819381065C11406093CF0B40
:10F660007093D00B8093D10B9093D20B0E94857F27
:10F67000F801868597859093D80B8093D70B868960
:10F6800097899093DE0B8093DD0B858590E0A0E059
:10F69000B0E08093DF0F9093E00FA093E10FB09361
:10F6A000E20F81899289A0E0B0E08093D90B90931A
:10F6B000DA0BA093DB0BB093DC0B24E0B595A79598
:10F6C000979587952A95D1F78093E40F1F910F9115
:10F6D0000895EF92FF920F931F932091E40FE09013
:10F6E000D30BF090D40B0091D50B1091D60BE20EFA
:10F6F000F11C011D111DFC01628D738D6250704063
:10F7000080E090E02091DF0F3091E00F4091E10F19
:10F710005091E20F0E94BB7FE60EF71E081F191FD3
:10F72000B701C8011F910F91FF90EF9008958FEDE1
:10F730009BE00E944D7F882341F082ED93E06CEBCB
:10F7400070EF40E00E946F7AF2CF60E070E080E0FE
:10F7500090E00E94857F882341F08AE294E063ED87
:10F7600070EF40E00E946F7AF0CF80E00895A0E84B
:10F77000B8E020E030E52D933D9399E0A037B9073C
:10F78000D1F7E82FF0E0EE0FFF1FEE0FFF1FE15261
:10F79000F24F60817181828193810E94857F86ED25
:10F7A00097E06DE07CE040E50E946F7A8091E30F86
:10F7B00080FF03C061EB70EF02C066EA70EF88E083
:10F7C00098E040E50E946F7A08950F931F93182FD9
:10F7D000062F0E94E37980E590E068E240E50E9410
:10F7E000677A8AE590E060E770EF40E50E946F7A03
:10F7F0008CE091E069E970EF40E00E946F7A129529
:10F800001F701F5C85E163E0412F20E00E94EC79CE
:10F81000802F90E08F709070892B09F0005F029527
:10F820000F70005D87E163E0402F20E00E94EC79DB
:10F830001F910F9108952F923F924F925F926F9276
:10F840007F928F929F92AF92BF92CF92DF92EF9270
:10F85000FF920F931F93CF93DF9386E190E00E9476
:10F86000547A8093E30F88E20E945D7A8091E30FDF
:10F8700080FF14C0E091C00BF091C10B309771F480
:10F8800084918C3059F4AA24F89485B7982F91600C
:10F8900095BF8D7F85BF0C94000001C0AA2480E035
:10F8A00060E00E94E57B0E94977B80E060E00E9420
:10F8B000E57B8FED9BE00E941C7B8091D70B9091A4
:10F8C000D80BAA2797FDA095BA2F2091CF0B309186
:10F8D000D00B4091D10B5091D20B820F931FA41FDC
:10F8E000B51F2091DD0B3091DE0B220F331F442713
:10F8F00037FD4095542F820F931FA41FB51F80938F
:10F90000D30B9093D40BA093D50BB093D60BBB2401
:10F9100010E06091D30B7091D40B8091D50B909136
:10F92000D60B610F711D811D911D0E94857F81E0A5
:10F930000E945D7ACFEDDBE08B858E7541F5A88066
:10F94000AA2061F185EEA81611F195E0A916F9F04B
:10F95000EEE2AE16E1F088858535C9F489858A35F1
:10F96000B1F48A85853499F4CE010E94697BEB2D30
:10F97000F0E0EE0FFF1FEE0FFF1FE152F24F60832A
:10F98000718382839383B394F0E8BF1649F0A09605
:10F990008DE0CF3DD80781F6AA2011F4AA2408C033
:10F9A000B7FC06C01F5F8091E40F181708F4B1CFB1
:10F9B0009924939488248394EE244B2C552412018B
:10F9C0000894210831088E2D6B2D0E94E57BCE2CEA
:10F9D000DD248601000F111F000F111F0152124F6D
:10F9E000C6E9D1E0F80161917191819191918F0106
:10F9F0000E94857FCE016DEE7BE040E00E946F7A31
:10FA000081E00E945D7AC05BDF4FF6E0C639DF0718
:10FA100049F78E2D0E94B77B8091C00B9091C10B4E
:10FA2000892BD1F7FF2440E1642E712C6C0C7D1CD6
:10FA30000F2D10E080E590E0089FE001099FD00DB8
:10FA4000189FD00D1124C057DE4FCE0168E2492D1A
:10FA50000E94677A86E00E945D7A980C95E099167C
:10FA600019F488248A9404C0992011F4882483947A
:10FA70008091C00B9091C10B84FF0CC0FF20C1F29C
:10FA8000CE0168E240E00E94677AFA94EAE5E093EA
:10FA9000C30B18C08091C00B9091C10B85FF17C09C
:10FAA000FEE0FF1528F20C0D1D1D021513050CF0CC
:10FAB000BFCFCE0168E240E00E94677AF3948AE506
:10FAC0008093C30B8F2D8E0D0E94B77BB1CF809199
:10FAD000C00B9091C10B86FF06C0EE2009F4A8CFA1
:10FAE00090EFE90E70CF8091C00B9091C10B87FF12
:10FAF00007C0641475040CF09BCFE0E1EE0E63CFF9
:10FB00008091C00B9091C10B83FF0BC08091C00B03
:10FB10009091C10B892BD1F78E2D8F0D0E94A27D64
:10FB2000B3CE8091C00B9091C10B82FF81CF6091C9
:10FB3000E30FF1E06F276093E30F86E190E00E940E
:10FB40004A7A41CF2F923F924F925F926F927F926B
:10FB50008F929F92AF92BF92CF92DF92EF92FF92DD
:10FB60000F931F93DF93CF9300D000D000D0CDB779
:10FB7000DEB7C82EDD24F601EE0FFF1FEE0FFF1FCC
:10FB8000E152F24F60817181828193810E94857F71
:10FB900082E190E00E94547A8093CB0B83E190E065
:10FBA0000E94547A8093CC0B84E190E00E94547AB6
:10FBB0008093CD0B85E190E00E94547A8093CE0B28
:10FBC0002091CB0B3091CC0B4091CD0B5091CE0BB3
:10FBD00080912D0D90912E0DA0912F0DB091300D93
:10FBE000281739074A075B0731F4E0E0F0E0E491B9
:10FBF000EF3F09F003C181E00E945D7A88E78093BE
:10FC0000BE0B82E08093BF0B10E0812F60E040E2EA
:10FC100020E00E94EC79812F61E040E220E50E9423
:10FC2000EC791F5F183289F78EE190E06EE870EF93
:10FC300040E00E946F7A80912D0D90912E0DA09141
:10FC40002F0DB091300D8093CB0B9093CC0BA093E4
:10FC5000CD0BB093CE0B2091E70B3091E80B409188
:10FC6000E90B5091EA0BDA01C901E9E0B695A795D5
:10FC700097958795EA95D1F7782E77E7A72EA8165E
:10FC800018F468E7762E09C0317040705070211565
:10FC900031054105510509F07394372C329436949F
:10FCA00057E03522F999FECFEE24FF248701552431
:10FCB000662442E0442E4601880C991C880C991C4D
:10FCC0008FED9DE0880E991E21E1222E7CC0D4018B
:10FCD0006D917D918D919C916F5F7F4F8F4F9F4F65
:10FCE000650D711D811D911D0E94857FA8019701E1
:10FCF000EFEDFBE0FE83ED83F894B90193E0A92ECC
:10FD0000F901A0925700E895789407B600FCFDCF62
:10FD1000AD81BE817C836B8380E091E0860F971F6D
:10FD20009A8389838C911196DC901197CC24F601EB
:10FD3000E80FF11DCF011296F894AA24A394EB8149
:10FD4000FC810C01A0925700E8951124789432961A
:10FD5000FC83EB8389819A81E817F90719F7AD8154
:10FD6000BE81A050BF4FBE83AD83F89485E0A82E1E
:10FD7000FB01A0925700E895789407B600FCFDCFF0
:10FD8000F89420925700E895789420503F4F4F4FB9
:10FD90005F4F8D819E818F5D9D4009F0ADCF80E0EA
:10FDA00092E0A0E0B0E0E80EF91E0A1F1B1F63946A
:10FDB000631410F043946624842D61E04EE320E543
:10FDC0000E94EC795394571408F481CF82E190E0BB
:10FDD0006091CB0B0E944A7A83E190E06091CC0B5A
:10FDE0000E944A7A84E190E06091CD0B0E944A7AA9
:10FDF00085E190E06091CE0B0E944A7A26960FB67C
:10FE0000F894DEBF0FBECDBFCF91DF911F910F9150
:10FE1000FF90EF90DF90CF90BF90AF909F908F902A
:10FE20007F906F905F904F903F902F9008958FEF4D
:10FE30008EBD00008DB587FBE6F78EB500000895F6
:10FE4000EFEFFFEF319721F0F2DF8F3F0000D1F3AA
:10FE50000895EFEFFFEF319719F0E9DF8E3FD9F703
:10FE600008959AE0E4DF9A95E9F78BB180648BB945
:10FE700008959BB19F7B9BB9982FD9DF892F806410
:10FE8000D7DF872FD5DF862FD3DF852FD1DF842FD4
:10FE9000CFDF85E9CDDFCBDF08959093C50B80934D
:10FEA000C60B85B18F75806485B984B1806A84B9C9
:10FEB0005E9A569A209A80E58CBD81E08DBD9AE0CD
:10FEC000B6DF9A95E9F780E070E060E050E040E04E
:10FED000D0DFB6DF813019F0C4DF81E00895A7DFFD
:10FEE000803039F081E070E060E050E040E0C1DF58
:10FEF000F6CFB7DF8FEF8093C70B8093C80B80934B
:10FF0000C90B8093CA0B882708952091C70B3091A5
:10FF1000C80B4091C90B5091CA0B261737074807E9
:10FF2000590739F16093C70B7093C80B8093C90BC5
:10FF30009093CA0B4427562F672F782F550F661FB3
:10FF4000771F81E196DF85DF8E3F19F08ADF8FEF23
:10FF50000895B091C50BA091C60BE0E0F2E067DF19
:10FF60008D9331970000D9F7000061DF60DF00005A
:10FF700078DF88270895629FD001739FF001829FE8
:10FF8000E00DF11D649FE00DF11D929FF00D839F28
:10FF9000F00D749FF00D659FF00D9927729FB00DC5
:10FFA000E11DF91F639FB00DE11DF91FBD01CF01D8
:08FFB00011240895F894FFCF1D
:040000030000F00009
:00000001FF
